{
  "_format": "hh-sol-artifact-1",
  "contractName": "AcmeNFT",
  "sourceName": "contracts/AcmeNFT.sol",
  "abi": [
    {
      "inputs": [
        {
          "internalType": "address",
          "name": "acmeMemberNFTContractAddress",
          "type": "address"
        }
      ],
      "stateMutability": "nonpayable",
      "type": "constructor"
    },
    {
      "anonymous": false,
      "inputs": [
        {
          "indexed": true,
          "internalType": "address",
          "name": "owner",
          "type": "address"
        },
        {
          "indexed": true,
          "internalType": "address",
          "name": "approved",
          "type": "address"
        },
        {
          "indexed": true,
          "internalType": "uint256",
          "name": "tokenId",
          "type": "uint256"
        }
      ],
      "name": "Approval",
      "type": "event"
    },
    {
      "anonymous": false,
      "inputs": [
        {
          "indexed": true,
          "internalType": "address",
          "name": "owner",
          "type": "address"
        },
        {
          "indexed": true,
          "internalType": "address",
          "name": "operator",
          "type": "address"
        },
        {
          "indexed": false,
          "internalType": "bool",
          "name": "approved",
          "type": "bool"
        }
      ],
      "name": "ApprovalForAll",
      "type": "event"
    },
    {
      "anonymous": false,
      "inputs": [
        {
          "indexed": false,
          "internalType": "uint256",
          "name": "tokenId",
          "type": "uint256"
        },
        {
          "indexed": false,
          "internalType": "string",
          "name": "customName",
          "type": "string"
        }
      ],
      "name": "CustomNamePurchased",
      "type": "event"
    },
    {
      "anonymous": false,
      "inputs": [
        {
          "indexed": true,
          "internalType": "address",
          "name": "owner",
          "type": "address"
        },
        {
          "indexed": false,
          "internalType": "uint256",
          "name": "tokenId",
          "type": "uint256"
        }
      ],
      "name": "NFTMinted",
      "type": "event"
    },
    {
      "anonymous": false,
      "inputs": [
        {
          "indexed": true,
          "internalType": "address",
          "name": "previousOwner",
          "type": "address"
        },
        {
          "indexed": true,
          "internalType": "address",
          "name": "newOwner",
          "type": "address"
        }
      ],
      "name": "OwnershipTransferred",
      "type": "event"
    },
    {
      "anonymous": false,
      "inputs": [
        {
          "indexed": true,
          "internalType": "address",
          "name": "from",
          "type": "address"
        },
        {
          "indexed": true,
          "internalType": "address",
          "name": "to",
          "type": "address"
        },
        {
          "indexed": true,
          "internalType": "uint256",
          "name": "tokenId",
          "type": "uint256"
        }
      ],
      "name": "Transfer",
      "type": "event"
    },
    {
      "inputs": [],
      "name": "CUSTOM_NAME_COST",
      "outputs": [
        {
          "internalType": "uint256",
          "name": "",
          "type": "uint256"
        }
      ],
      "stateMutability": "view",
      "type": "function"
    },
    {
      "inputs": [],
      "name": "FIRST_15_COST",
      "outputs": [
        {
          "internalType": "uint256",
          "name": "",
          "type": "uint256"
        }
      ],
      "stateMutability": "view",
      "type": "function"
    },
    {
      "inputs": [],
      "name": "MAX_NFTS_PER_TX",
      "outputs": [
        {
          "internalType": "uint256",
          "name": "",
          "type": "uint256"
        }
      ],
      "stateMutability": "view",
      "type": "function"
    },
    {
      "inputs": [],
      "name": "MAX_SUPPLY",
      "outputs": [
        {
          "internalType": "uint256",
          "name": "",
          "type": "uint256"
        }
      ],
      "stateMutability": "view",
      "type": "function"
    },
    {
      "inputs": [],
      "name": "REST_OF_NFT_COST",
      "outputs": [
        {
          "internalType": "uint256",
          "name": "",
          "type": "uint256"
        }
      ],
      "stateMutability": "view",
      "type": "function"
    },
    {
      "inputs": [
        {
          "internalType": "address",
          "name": "to",
          "type": "address"
        },
        {
          "internalType": "uint256",
          "name": "tokenId",
          "type": "uint256"
        }
      ],
      "name": "approve",
      "outputs": [],
      "stateMutability": "nonpayable",
      "type": "function"
    },
    {
      "inputs": [
        {
          "internalType": "address",
          "name": "owner",
          "type": "address"
        }
      ],
      "name": "balanceOf",
      "outputs": [
        {
          "internalType": "uint256",
          "name": "",
          "type": "uint256"
        }
      ],
      "stateMutability": "view",
      "type": "function"
    },
    {
      "inputs": [
        {
          "internalType": "uint256",
          "name": "tokenId",
          "type": "uint256"
        }
      ],
      "name": "burn",
      "outputs": [],
      "stateMutability": "nonpayable",
      "type": "function"
    },
    {
      "inputs": [
        {
          "internalType": "uint256",
          "name": "tokenId",
          "type": "uint256"
        }
      ],
      "name": "getApproved",
      "outputs": [
        {
          "internalType": "address",
          "name": "",
          "type": "address"
        }
      ],
      "stateMutability": "view",
      "type": "function"
    },
    {
      "inputs": [
        {
          "internalType": "uint256",
          "name": "tokenId",
          "type": "uint256"
        }
      ],
      "name": "getCustomName",
      "outputs": [
        {
          "internalType": "string",
          "name": "",
          "type": "string"
        }
      ],
      "stateMutability": "view",
      "type": "function"
    },
    {
      "inputs": [
        {
          "internalType": "address",
          "name": "owner",
          "type": "address"
        },
        {
          "internalType": "uint256",
          "name": "index",
          "type": "uint256"
        }
      ],
      "name": "getTokenByIndex",
      "outputs": [
        {
          "internalType": "uint256",
          "name": "",
          "type": "uint256"
        }
      ],
      "stateMutability": "view",
      "type": "function"
    },
    {
      "inputs": [
        {
          "internalType": "address",
          "name": "owner",
          "type": "address"
        },
        {
          "internalType": "address",
          "name": "operator",
          "type": "address"
        }
      ],
      "name": "isApprovedForAll",
      "outputs": [
        {
          "internalType": "bool",
          "name": "",
          "type": "bool"
        }
      ],
      "stateMutability": "view",
      "type": "function"
    },
    {
      "inputs": [],
      "name": "name",
      "outputs": [
        {
          "internalType": "string",
          "name": "",
          "type": "string"
        }
      ],
      "stateMutability": "view",
      "type": "function"
    },
    {
      "inputs": [],
      "name": "owner",
      "outputs": [
        {
          "internalType": "address",
          "name": "",
          "type": "address"
        }
      ],
      "stateMutability": "view",
      "type": "function"
    },
    {
      "inputs": [
        {
          "internalType": "uint256",
          "name": "tokenId",
          "type": "uint256"
        }
      ],
      "name": "ownerOf",
      "outputs": [
        {
          "internalType": "address",
          "name": "",
          "type": "address"
        }
      ],
      "stateMutability": "view",
      "type": "function"
    },
    {
      "inputs": [
        {
          "internalType": "uint256",
          "name": "tokenId",
          "type": "uint256"
        },
        {
          "internalType": "string",
          "name": "customName",
          "type": "string"
        }
      ],
      "name": "purchaseCustomName",
      "outputs": [],
      "stateMutability": "payable",
      "type": "function"
    },
    {
      "inputs": [],
      "name": "renounceOwnership",
      "outputs": [],
      "stateMutability": "nonpayable",
      "type": "function"
    },
    {
      "inputs": [
        {
          "internalType": "address",
          "name": "to",
          "type": "address"
        },
        {
          "internalType": "string",
          "name": "uri",
          "type": "string"
        },
        {
          "internalType": "string",
          "name": "customName",
          "type": "string"
        }
      ],
      "name": "safeMint",
      "outputs": [
        {
          "internalType": "uint256",
          "name": "",
          "type": "uint256"
        }
      ],
      "stateMutability": "payable",
      "type": "function"
    },
    {
      "inputs": [
        {
          "internalType": "address",
          "name": "from",
          "type": "address"
        },
        {
          "internalType": "address",
          "name": "to",
          "type": "address"
        },
        {
          "internalType": "uint256",
          "name": "tokenId",
          "type": "uint256"
        }
      ],
      "name": "safeTransferFrom",
      "outputs": [],
      "stateMutability": "nonpayable",
      "type": "function"
    },
    {
      "inputs": [
        {
          "internalType": "address",
          "name": "from",
          "type": "address"
        },
        {
          "internalType": "address",
          "name": "to",
          "type": "address"
        },
        {
          "internalType": "uint256",
          "name": "tokenId",
          "type": "uint256"
        },
        {
          "internalType": "bytes",
          "name": "data",
          "type": "bytes"
        }
      ],
      "name": "safeTransferFrom",
      "outputs": [],
      "stateMutability": "nonpayable",
      "type": "function"
    },
    {
      "inputs": [
        {
          "internalType": "address",
          "name": "operator",
          "type": "address"
        },
        {
          "internalType": "bool",
          "name": "approved",
          "type": "bool"
        }
      ],
      "name": "setApprovalForAll",
      "outputs": [],
      "stateMutability": "nonpayable",
      "type": "function"
    },
    {
      "inputs": [
        {
          "internalType": "bytes4",
          "name": "interfaceId",
          "type": "bytes4"
        }
      ],
      "name": "supportsInterface",
      "outputs": [
        {
          "internalType": "bool",
          "name": "",
          "type": "bool"
        }
      ],
      "stateMutability": "view",
      "type": "function"
    },
    {
      "inputs": [],
      "name": "symbol",
      "outputs": [
        {
          "internalType": "string",
          "name": "",
          "type": "string"
        }
      ],
      "stateMutability": "view",
      "type": "function"
    },
    {
      "inputs": [
        {
          "internalType": "uint256",
          "name": "index",
          "type": "uint256"
        }
      ],
      "name": "tokenByIndex",
      "outputs": [
        {
          "internalType": "uint256",
          "name": "",
          "type": "uint256"
        }
      ],
      "stateMutability": "view",
      "type": "function"
    },
    {
      "inputs": [
        {
          "internalType": "address",
          "name": "owner",
          "type": "address"
        },
        {
          "internalType": "uint256",
          "name": "index",
          "type": "uint256"
        }
      ],
      "name": "tokenOfOwnerByIndex",
      "outputs": [
        {
          "internalType": "uint256",
          "name": "",
          "type": "uint256"
        }
      ],
      "stateMutability": "view",
      "type": "function"
    },
    {
      "inputs": [
        {
          "internalType": "uint256",
          "name": "tokenId",
          "type": "uint256"
        }
      ],
      "name": "tokenURI",
      "outputs": [
        {
          "internalType": "string",
          "name": "",
          "type": "string"
        }
      ],
      "stateMutability": "view",
      "type": "function"
    },
    {
      "inputs": [],
      "name": "totalSupply",
      "outputs": [
        {
          "internalType": "uint256",
          "name": "",
          "type": "uint256"
        }
      ],
      "stateMutability": "view",
      "type": "function"
    },
    {
      "inputs": [
        {
          "internalType": "address",
          "name": "from",
          "type": "address"
        },
        {
          "internalType": "address",
          "name": "to",
          "type": "address"
        },
        {
          "internalType": "uint256",
          "name": "tokenId",
          "type": "uint256"
        }
      ],
      "name": "transferFrom",
      "outputs": [],
      "stateMutability": "nonpayable",
      "type": "function"
    },
    {
      "inputs": [
        {
          "internalType": "address",
          "name": "newOwner",
          "type": "address"
        }
      ],
      "name": "transferOwnership",
      "outputs": [],
      "stateMutability": "nonpayable",
      "type": "function"
    }
  ],
  "bytecode": "0x60806040523480156200001157600080fd5b50604051620047b9380380620047b983398181016040528101906200003791906200032f565b6040518060400160405280600781526020017f41636d654e4654000000000000000000000000000000000000000000000000008152506040518060400160405280600481526020017f41434d45000000000000000000000000000000000000000000000000000000008152508160009080519060200190620000bb92919062000215565b508060019080519060200190620000d492919062000215565b505050620000f7620000eb6200014760201b60201c565b6200014f60201b60201c565b6001600c8190555080600e60006101000a81548173ffffffffffffffffffffffffffffffffffffffff021916908373ffffffffffffffffffffffffffffffffffffffff16021790555050620003c6565b600033905090565b6000600b60009054906101000a900473ffffffffffffffffffffffffffffffffffffffff16905081600b60006101000a81548173ffffffffffffffffffffffffffffffffffffffff021916908373ffffffffffffffffffffffffffffffffffffffff1602179055508173ffffffffffffffffffffffffffffffffffffffff168173ffffffffffffffffffffffffffffffffffffffff167f8be0079c531659141344cd1fd0a4f28419497f9722a3daafe3b4186f6b6457e060405160405180910390a35050565b828054620002239062000390565b90600052602060002090601f01602090048101928262000247576000855562000293565b82601f106200026257805160ff191683800117855562000293565b8280016001018555821562000293579182015b828111156200029257825182559160200191906001019062000275565b5b509050620002a29190620002a6565b5090565b5b80821115620002c1576000816000905550600101620002a7565b5090565b600080fd5b600073ffffffffffffffffffffffffffffffffffffffff82169050919050565b6000620002f782620002ca565b9050919050565b6200030981620002ea565b81146200031557600080fd5b50565b6000815190506200032981620002fe565b92915050565b600060208284031215620003485762000347620002c5565b5b6000620003588482850162000318565b91505092915050565b7f4e487b7100000000000000000000000000000000000000000000000000000000600052602260045260246000fd5b60006002820490506001821680620003a957607f821691505b60208210811415620003c057620003bf62000361565b5b50919050565b6143e380620003d66000396000f3fe6080604052600436106101c25760003560e01c806370a08231116100f7578063acc8214a11610095578063ec809dd411610064578063ec809dd41461067f578063eca81d42146106aa578063f1c101d0146106da578063f2fde38b14610705576101c2565b8063acc8214a146105c0578063b88d4fde146105dc578063c87b56dd14610605578063e985e9c514610642576101c2565b80637d162668116100d15780637d162668146105045780638da5cb5b1461054157806395d89b411461056c578063a22cb46514610597576101c2565b806370a0823114610485578063715018a6146104c257806378f96651146104d9576101c2565b80632f745c591161016457806342842e0e1161013e57806342842e0e146103b957806342966c68146103e25780634f6ccce71461040b5780636352211e14610448576101c2565b80632f745c591461031457806332cb6b0c146103515780633440c75d1461037c576101c2565b8063095ea7b3116101a0578063095ea7b31461026c5780631168a6311461029557806318160ddd146102c057806323b872dd146102eb576101c2565b806301ffc9a7146101c757806306fdde0314610204578063081812fc1461022f575b600080fd5b3480156101d357600080fd5b506101ee60048036038101906101e99190612cb3565b61072e565b6040516101fb9190612cfb565b60405180910390f35b34801561021057600080fd5b50610219610740565b6040516102269190612daf565b60405180910390f35b34801561023b57600080fd5b5061025660048036038101906102519190612e07565b6107d2565b6040516102639190612e75565b60405180910390f35b34801561027857600080fd5b50610293600480360381019061028e9190612ebc565b610818565b005b3480156102a157600080fd5b506102aa610930565b6040516102b79190612f0b565b60405180910390f35b3480156102cc57600080fd5b506102d5610935565b6040516102e29190612f0b565b60405180910390f35b3480156102f757600080fd5b50610312600480360381019061030d9190612f26565b610942565b005b34801561032057600080fd5b5061033b60048036038101906103369190612ebc565b6109a2565b6040516103489190612f0b565b60405180910390f35b34801561035d57600080fd5b50610366610a47565b6040516103739190612f0b565b60405180910390f35b34801561038857600080fd5b506103a3600480360381019061039e9190612e07565b610a4c565b6040516103b09190612daf565b60405180910390f35b3480156103c557600080fd5b506103e060048036038101906103db9190612f26565b610af1565b005b3480156103ee57600080fd5b5061040960048036038101906104049190612e07565b610b11565b005b34801561041757600080fd5b50610432600480360381019061042d9190612e07565b610b6d565b60405161043f9190612f0b565b60405180910390f35b34801561045457600080fd5b5061046f600480360381019061046a9190612e07565b610bde565b60405161047c9190612e75565b60405180910390f35b34801561049157600080fd5b506104ac60048036038101906104a79190612f79565b610c90565b6040516104b99190612f0b565b60405180910390f35b3480156104ce57600080fd5b506104d7610d48565b005b3480156104e557600080fd5b506104ee610d5c565b6040516104fb9190612f0b565b60405180910390f35b34801561051057600080fd5b5061052b60048036038101906105269190612ebc565b610d67565b6040516105389190612f0b565b60405180910390f35b34801561054d57600080fd5b50610556610d7b565b6040516105639190612e75565b60405180910390f35b34801561057857600080fd5b50610581610da5565b60405161058e9190612daf565b60405180910390f35b3480156105a357600080fd5b506105be60048036038101906105b99190612fd2565b610e37565b005b6105da60048036038101906105d59190613147565b610e4d565b005b3480156105e857600080fd5b5061060360048036038101906105fe9190613244565b610fdf565b005b34801561061157600080fd5b5061062c60048036038101906106279190612e07565b611041565b6040516106399190612daf565b60405180910390f35b34801561064e57600080fd5b50610669600480360381019061066491906132c7565b611053565b6040516106769190612cfb565b60405180910390f35b34801561068b57600080fd5b506106946110e7565b6040516106a19190612f0b565b60405180910390f35b6106c460048036038101906106bf9190613307565b6110ed565b6040516106d19190612f0b565b60405180910390f35b3480156106e657600080fd5b506106ef611430565b6040516106fc9190612f0b565b60405180910390f35b34801561071157600080fd5b5061072c60048036038101906107279190612f79565b61143b565b005b6000610739826114bf565b9050919050565b60606000805461074f906133c1565b80601f016020809104026020016040519081016040528092919081815260200182805461077b906133c1565b80156107c85780601f1061079d576101008083540402835291602001916107c8565b820191906000526020600020905b8154815290600101906020018083116107ab57829003601f168201915b5050505050905090565b60006107dd82611539565b6004600083815260200190815260200160002060009054906101000a900473ffffffffffffffffffffffffffffffffffffffff169050919050565b600061082382610bde565b90508073ffffffffffffffffffffffffffffffffffffffff168373ffffffffffffffffffffffffffffffffffffffff161415610894576040517f08c379a000000000000000000000000000000000000000000000000000000000815260040161088b90613465565b60405180910390fd5b8073ffffffffffffffffffffffffffffffffffffffff166108b3611584565b73ffffffffffffffffffffffffffffffffffffffff1614806108e257506108e1816108dc611584565b611053565b5b610921576040517f08c379a0000000000000000000000000000000000000000000000000000000008152600401610918906134f7565b60405180910390fd5b61092b838361158c565b505050565b600581565b6000600880549050905090565b61095361094d611584565b82611645565b610992576040517f08c379a000000000000000000000000000000000000000000000000000000000815260040161098990613589565b60405180910390fd5b61099d8383836116da565b505050565b60006109ad83610c90565b82106109ee576040517f08c379a00000000000000000000000000000000000000000000000000000000081526004016109e59061361b565b60405180910390fd5b600660008473ffffffffffffffffffffffffffffffffffffffff1673ffffffffffffffffffffffffffffffffffffffff168152602001908152602001600020600083815260200190815260200160002054905092915050565b602881565b6060601060008381526020019081526020016000208054610a6c906133c1565b80601f0160208091040260200160405190810160405280929190818152602001828054610a98906133c1565b8015610ae55780601f10610aba57610100808354040283529160200191610ae5565b820191906000526020600020905b815481529060010190602001808311610ac857829003601f168201915b50505050509050919050565b610b0c83838360405180602001604052806000815250610fdf565b505050565b610b22610b1c611584565b82611645565b610b61576040517f08c379a0000000000000000000000000000000000000000000000000000000008152600401610b5890613589565b60405180910390fd5b610b6a81611941565b50565b6000610b77610935565b8210610bb8576040517f08c379a0000000000000000000000000000000000000000000000000000000008152600401610baf906136ad565b60405180910390fd5b60088281548110610bcc57610bcb6136cd565b5b90600052602060002001549050919050565b6000806002600084815260200190815260200160002060009054906101000a900473ffffffffffffffffffffffffffffffffffffffff169050600073ffffffffffffffffffffffffffffffffffffffff168173ffffffffffffffffffffffffffffffffffffffff161415610c87576040517f08c379a0000000000000000000000000000000000000000000000000000000008152600401610c7e90613748565b60405180910390fd5b80915050919050565b60008073ffffffffffffffffffffffffffffffffffffffff168273ffffffffffffffffffffffffffffffffffffffff161415610d01576040517f08c379a0000000000000000000000000000000000000000000000000000000008152600401610cf8906137da565b60405180910390fd5b600360008373ffffffffffffffffffffffffffffffffffffffff1673ffffffffffffffffffffffffffffffffffffffff168152602001908152602001600020549050919050565b610d5061194d565b610d5a60006119cb565b565b660221b262dd800081565b6000610d7383836109a2565b905092915050565b6000600b60009054906101000a900473ffffffffffffffffffffffffffffffffffffffff16905090565b606060018054610db4906133c1565b80601f0160208091040260200160405190810160405280929190818152602001828054610de0906133c1565b8015610e2d5780601f10610e0257610100808354040283529160200191610e2d565b820191906000526020600020905b815481529060010190602001808311610e1057829003601f168201915b5050505050905090565b610e49610e42611584565b8383611a91565b5050565b6002600c541415610e93576040517f08c379a0000000000000000000000000000000000000000000000000000000008152600401610e8a90613846565b60405180910390fd5b6002600c81905550610ea53383611645565b610ee4576040517f08c379a0000000000000000000000000000000000000000000000000000000008152600401610edb906138b2565b60405180910390fd5b6000815111610f28576040517f08c379a0000000000000000000000000000000000000000000000000000000008152600401610f1f9061391e565b60405180910390fd5b66016bcc41e90000341015610f72576040517f08c379a0000000000000000000000000000000000000000000000000000000008152600401610f69906139b0565b60405180910390fd5b80601060008481526020019081526020016000209080519060200190610f99929190612b64565b507f88f0947280e63ac5e799d2a5f269ac91c75c2e6af8100c2ef94e36b81afb8ff38282604051610fcb9291906139d0565b60405180910390a16001600c819055505050565b610ff0610fea611584565b83611645565b61102f576040517f08c379a000000000000000000000000000000000000000000000000000000000815260040161102690613589565b60405180910390fd5b61103b84848484611bfe565b50505050565b606061104c82611c5a565b9050919050565b6000600560008473ffffffffffffffffffffffffffffffffffffffff1673ffffffffffffffffffffffffffffffffffffffff16815260200190815260200160002060008373ffffffffffffffffffffffffffffffffffffffff1673ffffffffffffffffffffffffffffffffffffffff16815260200190815260200160002060009054906101000a900460ff16905092915050565b61c35081565b60006002600c541415611135576040517f08c379a000000000000000000000000000000000000000000000000000000000815260040161112c90613846565b60405180910390fd5b6002600c81905550600e60009054906101000a900473ffffffffffffffffffffffffffffffffffffffff1673ffffffffffffffffffffffffffffffffffffffff166338e21cce856040518263ffffffff1660e01b81526004016111989190612e75565b60206040518083038186803b1580156111b057600080fd5b505afa1580156111c4573d6000803e3d6000fd5b505050506040513d601f19601f820116820180604052508101906111e89190613a15565b611227576040517f08c379a000000000000000000000000000000000000000000000000000000000815260040161121e90613ab4565b60405180910390fd5b6000611233600d611d6d565b90506000600f82101561124a5761c3509050611255565b660221b262dd800090505b60008451111561127c5761127966016bcc41e9000082611d7b90919063ffffffff16565b90505b803410156112bf576040517f08c379a00000000000000000000000000000000000000000000000000000000081526004016112b690613b46565b60405180910390fd5b60286112de60016112d0600d611d6d565b611d7b90919063ffffffff16565b1115801561131b57506112fb600583611d7b90919063ffffffff16565b611318600161130a600d611d6d565b611d7b90919063ffffffff16565b11155b61135a576040517f08c379a000000000000000000000000000000000000000000000000000000000815260040161135190613bfe565b60405180910390fd5b611364600d611d91565b61136e8683611da7565b6113788286611dc5565b6000845111156113c5577f88f0947280e63ac5e799d2a5f269ac91c75c2e6af8100c2ef94e36b81afb8ff36113ad600d611d6d565b856040516113bc9291906139d0565b60405180910390a15b8573ffffffffffffffffffffffffffffffffffffffff167f4cc0a9c4a99ddc700de1af2c9f916a7cbfdb71f14801ccff94061ad1ef8a8040611407600d611d6d565b6040516114149190612f0b565b60405180910390a281925050506001600c819055509392505050565b66016bcc41e9000081565b61144361194d565b600073ffffffffffffffffffffffffffffffffffffffff168173ffffffffffffffffffffffffffffffffffffffff1614156114b3576040517f08c379a00000000000000000000000000000000000000000000000000000000081526004016114aa90613c90565b60405180910390fd5b6114bc816119cb565b50565b60007f780e9d63000000000000000000000000000000000000000000000000000000007bffffffffffffffffffffffffffffffffffffffffffffffffffffffff1916827bffffffffffffffffffffffffffffffffffffffffffffffffffffffff19161480611532575061153182611e39565b5b9050919050565b61154281611f1b565b611581576040517f08c379a000000000000000000000000000000000000000000000000000000000815260040161157890613748565b60405180910390fd5b50565b600033905090565b816004600083815260200190815260200160002060006101000a81548173ffffffffffffffffffffffffffffffffffffffff021916908373ffffffffffffffffffffffffffffffffffffffff160217905550808273ffffffffffffffffffffffffffffffffffffffff166115ff83610bde565b73ffffffffffffffffffffffffffffffffffffffff167f8c5be1e5ebec7d5bd14f71427d1e84f3dd0314c0f7b2291e5b200ac8c7c3b92560405160405180910390a45050565b60008061165183610bde565b90508073ffffffffffffffffffffffffffffffffffffffff168473ffffffffffffffffffffffffffffffffffffffff16148061169357506116928185611053565b5b806116d157508373ffffffffffffffffffffffffffffffffffffffff166116b9846107d2565b73ffffffffffffffffffffffffffffffffffffffff16145b91505092915050565b8273ffffffffffffffffffffffffffffffffffffffff166116fa82610bde565b73ffffffffffffffffffffffffffffffffffffffff1614611750576040517f08c379a000000000000000000000000000000000000000000000000000000000815260040161174790613d22565b60405180910390fd5b600073ffffffffffffffffffffffffffffffffffffffff168273ffffffffffffffffffffffffffffffffffffffff1614156117c0576040517f08c379a00000000000000000000000000000000000000000000000000000000081526004016117b790613db4565b60405180910390fd5b6117cb838383611f87565b6117d660008261158c565b6001600360008573ffffffffffffffffffffffffffffffffffffffff1673ffffffffffffffffffffffffffffffffffffffff16815260200190815260200160002060008282546118269190613e03565b925050819055506001600360008473ffffffffffffffffffffffffffffffffffffffff1673ffffffffffffffffffffffffffffffffffffffff168152602001908152602001600020600082825461187d9190613e37565b92505081905550816002600083815260200190815260200160002060006101000a81548173ffffffffffffffffffffffffffffffffffffffff021916908373ffffffffffffffffffffffffffffffffffffffff160217905550808273ffffffffffffffffffffffffffffffffffffffff168473ffffffffffffffffffffffffffffffffffffffff167fddf252ad1be2c89b69c2b068fc378daa952ba7f163c4a11628f55a4df523b3ef60405160405180910390a461193c838383611f97565b505050565b61194a81611f9c565b50565b611955611584565b73ffffffffffffffffffffffffffffffffffffffff16611973610d7b565b73ffffffffffffffffffffffffffffffffffffffff16146119c9576040517f08c379a00000000000000000000000000000000000000000000000000000000081526004016119c090613ed9565b60405180910390fd5b565b6000600b60009054906101000a900473ffffffffffffffffffffffffffffffffffffffff16905081600b60006101000a81548173ffffffffffffffffffffffffffffffffffffffff021916908373ffffffffffffffffffffffffffffffffffffffff1602179055508173ffffffffffffffffffffffffffffffffffffffff168173ffffffffffffffffffffffffffffffffffffffff167f8be0079c531659141344cd1fd0a4f28419497f9722a3daafe3b4186f6b6457e060405160405180910390a35050565b8173ffffffffffffffffffffffffffffffffffffffff168373ffffffffffffffffffffffffffffffffffffffff161415611b00576040517f08c379a0000000000000000000000000000000000000000000000000000000008152600401611af790613f45565b60405180910390fd5b80600560008573ffffffffffffffffffffffffffffffffffffffff1673ffffffffffffffffffffffffffffffffffffffff16815260200190815260200160002060008473ffffffffffffffffffffffffffffffffffffffff1673ffffffffffffffffffffffffffffffffffffffff16815260200190815260200160002060006101000a81548160ff0219169083151502179055508173ffffffffffffffffffffffffffffffffffffffff168373ffffffffffffffffffffffffffffffffffffffff167f17307eab39ab6107e8899845ad3d59bd9653f200f220920489ca2b5937696c3183604051611bf19190612cfb565b60405180910390a3505050565b611c098484846116da565b611c1584848484611fef565b611c54576040517f08c379a0000000000000000000000000000000000000000000000000000000008152600401611c4b90613fd7565b60405180910390fd5b50505050565b6060611c6582611539565b6000600a60008481526020019081526020016000208054611c85906133c1565b80601f0160208091040260200160405190810160405280929190818152602001828054611cb1906133c1565b8015611cfe5780601f10611cd357610100808354040283529160200191611cfe565b820191906000526020600020905b815481529060010190602001808311611ce157829003601f168201915b505050505090506000611d0f612186565b9050600081511415611d25578192505050611d68565b600082511115611d5a578082604051602001611d42929190614033565b60405160208183030381529060405292505050611d68565b611d638461219d565b925050505b919050565b600081600001549050919050565b60008183611d899190613e37565b905092915050565b6001816000016000828254019250508190555050565b611dc1828260405180602001604052806000815250612205565b5050565b611dce82611f1b565b611e0d576040517f08c379a0000000000000000000000000000000000000000000000000000000008152600401611e04906140c9565b60405180910390fd5b80600a60008481526020019081526020016000209080519060200190611e34929190612b64565b505050565b60007f80ac58cd000000000000000000000000000000000000000000000000000000007bffffffffffffffffffffffffffffffffffffffffffffffffffffffff1916827bffffffffffffffffffffffffffffffffffffffffffffffffffffffff19161480611f0457507f5b5e139f000000000000000000000000000000000000000000000000000000007bffffffffffffffffffffffffffffffffffffffffffffffffffffffff1916827bffffffffffffffffffffffffffffffffffffffffffffffffffffffff1916145b80611f145750611f1382612260565b5b9050919050565b60008073ffffffffffffffffffffffffffffffffffffffff166002600084815260200190815260200160002060009054906101000a900473ffffffffffffffffffffffffffffffffffffffff1673ffffffffffffffffffffffffffffffffffffffff1614159050919050565b611f928383836122ca565b505050565b505050565b611fa5816123de565b6000600a60008381526020019081526020016000208054611fc5906133c1565b905014611fec57600a60008281526020019081526020016000206000611feb9190612bea565b5b50565b60006120108473ffffffffffffffffffffffffffffffffffffffff166124fb565b15612179578373ffffffffffffffffffffffffffffffffffffffff1663150b7a02612039611584565b8786866040518563ffffffff1660e01b815260040161205b949392919061413e565b602060405180830381600087803b15801561207557600080fd5b505af19250505080156120a657506040513d601f19601f820116820180604052508101906120a3919061419f565b60015b612129573d80600081146120d6576040519150601f19603f3d011682016040523d82523d6000602084013e6120db565b606091505b50600081511415612121576040517f08c379a000000000000000000000000000000000000000000000000000000000815260040161211890613fd7565b60405180910390fd5b805181602001fd5b63150b7a0260e01b7bffffffffffffffffffffffffffffffffffffffffffffffffffffffff1916817bffffffffffffffffffffffffffffffffffffffffffffffffffffffff19161491505061217e565b600190505b949350505050565b606060405180602001604052806000815250905090565b60606121a882611539565b60006121b2612186565b905060008151116121d257604051806020016040528060008152506121fd565b806121dc8461251e565b6040516020016121ed929190614033565b6040516020818303038152906040525b915050919050565b61220f838361267f565b61221c6000848484611fef565b61225b576040517f08c379a000000000000000000000000000000000000000000000000000000000815260040161225290613fd7565b60405180910390fd5b505050565b60007f01ffc9a7000000000000000000000000000000000000000000000000000000007bffffffffffffffffffffffffffffffffffffffffffffffffffffffff1916827bffffffffffffffffffffffffffffffffffffffffffffffffffffffff1916149050919050565b6122d5838383612859565b600073ffffffffffffffffffffffffffffffffffffffff168373ffffffffffffffffffffffffffffffffffffffff161415612318576123138161285e565b612357565b8173ffffffffffffffffffffffffffffffffffffffff168373ffffffffffffffffffffffffffffffffffffffff16146123565761235583826128a7565b5b5b600073ffffffffffffffffffffffffffffffffffffffff168273ffffffffffffffffffffffffffffffffffffffff16141561239a5761239581612a14565b6123d9565b8273ffffffffffffffffffffffffffffffffffffffff168273ffffffffffffffffffffffffffffffffffffffff16146123d8576123d78282612ae5565b5b5b505050565b60006123e982610bde565b90506123f781600084611f87565b61240260008361158c565b6001600360008373ffffffffffffffffffffffffffffffffffffffff1673ffffffffffffffffffffffffffffffffffffffff16815260200190815260200160002060008282546124529190613e03565b925050819055506002600083815260200190815260200160002060006101000a81549073ffffffffffffffffffffffffffffffffffffffff021916905581600073ffffffffffffffffffffffffffffffffffffffff168273ffffffffffffffffffffffffffffffffffffffff167fddf252ad1be2c89b69c2b068fc378daa952ba7f163c4a11628f55a4df523b3ef60405160405180910390a46124f781600084611f97565b5050565b6000808273ffffffffffffffffffffffffffffffffffffffff163b119050919050565b60606000821415612566576040518060400160405280600181526020017f3000000000000000000000000000000000000000000000000000000000000000815250905061267a565b600082905060005b60008214612598578080612581906141cc565b915050600a826125919190614244565b915061256e565b60008167ffffffffffffffff8111156125b4576125b361301c565b5b6040519080825280601f01601f1916602001820160405280156125e65781602001600182028036833780820191505090505b5090505b60008514612673576001826125ff9190613e03565b9150600a8561260e9190614275565b603061261a9190613e37565b60f81b8183815181106126305761262f6136cd565b5b60200101907effffffffffffffffffffffffffffffffffffffffffffffffffffffffffffff1916908160001a905350600a8561266c9190614244565b94506125ea565b8093505050505b919050565b600073ffffffffffffffffffffffffffffffffffffffff168273ffffffffffffffffffffffffffffffffffffffff1614156126ef576040517f08c379a00000000000000000000000000000000000000000000000000000000081526004016126e6906142f2565b60405180910390fd5b6126f881611f1b565b15612738576040517f08c379a000000000000000000000000000000000000000000000000000000000815260040161272f9061435e565b60405180910390fd5b61274460008383611f87565b6001600360008473ffffffffffffffffffffffffffffffffffffffff1673ffffffffffffffffffffffffffffffffffffffff16815260200190815260200160002060008282546127949190613e37565b92505081905550816002600083815260200190815260200160002060006101000a81548173ffffffffffffffffffffffffffffffffffffffff021916908373ffffffffffffffffffffffffffffffffffffffff160217905550808273ffffffffffffffffffffffffffffffffffffffff16600073ffffffffffffffffffffffffffffffffffffffff167fddf252ad1be2c89b69c2b068fc378daa952ba7f163c4a11628f55a4df523b3ef60405160405180910390a461285560008383611f97565b5050565b505050565b6008805490506009600083815260200190815260200160002081905550600881908060018154018082558091505060019003906000526020600020016000909190919091505550565b600060016128b484610c90565b6128be9190613e03565b90506000600760008481526020019081526020016000205490508181146129a3576000600660008673ffffffffffffffffffffffffffffffffffffffff1673ffffffffffffffffffffffffffffffffffffffff168152602001908152602001600020600084815260200190815260200160002054905080600660008773ffffffffffffffffffffffffffffffffffffffff1673ffffffffffffffffffffffffffffffffffffffff168152602001908152602001600020600084815260200190815260200160002081905550816007600083815260200190815260200160002081905550505b6007600084815260200190815260200160002060009055600660008573ffffffffffffffffffffffffffffffffffffffff1673ffffffffffffffffffffffffffffffffffffffff16815260200190815260200160002060008381526020019081526020016000206000905550505050565b60006001600880549050612a289190613e03565b9050600060096000848152602001908152602001600020549050600060088381548110612a5857612a576136cd565b5b906000526020600020015490508060088381548110612a7a57612a796136cd565b5b906000526020600020018190555081600960008381526020019081526020016000208190555060096000858152602001908152602001600020600090556008805480612ac957612ac861437e565b5b6001900381819060005260206000200160009055905550505050565b6000612af083610c90565b905081600660008573ffffffffffffffffffffffffffffffffffffffff1673ffffffffffffffffffffffffffffffffffffffff168152602001908152602001600020600083815260200190815260200160002081905550806007600084815260200190815260200160002081905550505050565b828054612b70906133c1565b90600052602060002090601f016020900481019282612b925760008555612bd9565b82601f10612bab57805160ff1916838001178555612bd9565b82800160010185558215612bd9579182015b82811115612bd8578251825591602001919060010190612bbd565b5b509050612be69190612c2a565b5090565b508054612bf6906133c1565b6000825580601f10612c085750612c27565b601f016020900490600052602060002090810190612c269190612c2a565b5b50565b5b80821115612c43576000816000905550600101612c2b565b5090565b6000604051905090565b600080fd5b600080fd5b60007fffffffff0000000000000000000000000000000000000000000000000000000082169050919050565b612c9081612c5b565b8114612c9b57600080fd5b50565b600081359050612cad81612c87565b92915050565b600060208284031215612cc957612cc8612c51565b5b6000612cd784828501612c9e565b91505092915050565b60008115159050919050565b612cf581612ce0565b82525050565b6000602082019050612d106000830184612cec565b92915050565b600081519050919050565b600082825260208201905092915050565b60005b83811015612d50578082015181840152602081019050612d35565b83811115612d5f576000848401525b50505050565b6000601f19601f8301169050919050565b6000612d8182612d16565b612d8b8185612d21565b9350612d9b818560208601612d32565b612da481612d65565b840191505092915050565b60006020820190508181036000830152612dc98184612d76565b905092915050565b6000819050919050565b612de481612dd1565b8114612def57600080fd5b50565b600081359050612e0181612ddb565b92915050565b600060208284031215612e1d57612e1c612c51565b5b6000612e2b84828501612df2565b91505092915050565b600073ffffffffffffffffffffffffffffffffffffffff82169050919050565b6000612e5f82612e34565b9050919050565b612e6f81612e54565b82525050565b6000602082019050612e8a6000830184612e66565b92915050565b612e9981612e54565b8114612ea457600080fd5b50565b600081359050612eb681612e90565b92915050565b60008060408385031215612ed357612ed2612c51565b5b6000612ee185828601612ea7565b9250506020612ef285828601612df2565b9150509250929050565b612f0581612dd1565b82525050565b6000602082019050612f206000830184612efc565b92915050565b600080600060608486031215612f3f57612f3e612c51565b5b6000612f4d86828701612ea7565b9350506020612f5e86828701612ea7565b9250506040612f6f86828701612df2565b9150509250925092565b600060208284031215612f8f57612f8e612c51565b5b6000612f9d84828501612ea7565b91505092915050565b612faf81612ce0565b8114612fba57600080fd5b50565b600081359050612fcc81612fa6565b92915050565b60008060408385031215612fe957612fe8612c51565b5b6000612ff785828601612ea7565b925050602061300885828601612fbd565b9150509250929050565b600080fd5b600080fd5b7f4e487b7100000000000000000000000000000000000000000000000000000000600052604160045260246000fd5b61305482612d65565b810181811067ffffffffffffffff821117156130735761307261301c565b5b80604052505050565b6000613086612c47565b9050613092828261304b565b919050565b600067ffffffffffffffff8211156130b2576130b161301c565b5b6130bb82612d65565b9050602081019050919050565b82818337600083830152505050565b60006130ea6130e584613097565b61307c565b90508281526020810184848401111561310657613105613017565b5b6131118482856130c8565b509392505050565b600082601f83011261312e5761312d613012565b5b813561313e8482602086016130d7565b91505092915050565b6000806040838503121561315e5761315d612c51565b5b600061316c85828601612df2565b925050602083013567ffffffffffffffff81111561318d5761318c612c56565b5b61319985828601613119565b9150509250929050565b600067ffffffffffffffff8211156131be576131bd61301c565b5b6131c782612d65565b9050602081019050919050565b60006131e76131e2846131a3565b61307c565b90508281526020810184848401111561320357613202613017565b5b61320e8482856130c8565b509392505050565b600082601f83011261322b5761322a613012565b5b813561323b8482602086016131d4565b91505092915050565b6000806000806080858703121561325e5761325d612c51565b5b600061326c87828801612ea7565b945050602061327d87828801612ea7565b935050604061328e87828801612df2565b925050606085013567ffffffffffffffff8111156132af576132ae612c56565b5b6132bb87828801613216565b91505092959194509250565b600080604083850312156132de576132dd612c51565b5b60006132ec85828601612ea7565b92505060206132fd85828601612ea7565b9150509250929050565b6000806000606084860312156133205761331f612c51565b5b600061332e86828701612ea7565b935050602084013567ffffffffffffffff81111561334f5761334e612c56565b5b61335b86828701613119565b925050604084013567ffffffffffffffff81111561337c5761337b612c56565b5b61338886828701613119565b9150509250925092565b7f4e487b7100000000000000000000000000000000000000000000000000000000600052602260045260246000fd5b600060028204905060018216806133d957607f821691505b602082108114156133ed576133ec613392565b5b50919050565b7f4552433732313a20617070726f76616c20746f2063757272656e74206f776e6560008201527f7200000000000000000000000000000000000000000000000000000000000000602082015250565b600061344f602183612d21565b915061345a826133f3565b604082019050919050565b6000602082019050818103600083015261347e81613442565b9050919050565b7f4552433732313a20617070726f76652063616c6c6572206973206e6f7420746f60008201527f6b656e206f776e6572206e6f7220617070726f76656420666f7220616c6c0000602082015250565b60006134e1603e83612d21565b91506134ec82613485565b604082019050919050565b60006020820190508181036000830152613510816134d4565b9050919050565b7f4552433732313a2063616c6c6572206973206e6f7420746f6b656e206f776e6560008201527f72206e6f7220617070726f766564000000000000000000000000000000000000602082015250565b6000613573602e83612d21565b915061357e82613517565b604082019050919050565b600060208201905081810360008301526135a281613566565b9050919050565b7f455243373231456e756d657261626c653a206f776e657220696e646578206f7560008201527f74206f6620626f756e6473000000000000000000000000000000000000000000602082015250565b6000613605602b83612d21565b9150613610826135a9565b604082019050919050565b60006020820190508181036000830152613634816135f8565b9050919050565b7f455243373231456e756d657261626c653a20676c6f62616c20696e646578206f60008201527f7574206f6620626f756e64730000000000000000000000000000000000000000602082015250565b6000613697602c83612d21565b91506136a28261363b565b604082019050919050565b600060208201905081810360008301526136c68161368a565b9050919050565b7f4e487b7100000000000000000000000000000000000000000000000000000000600052603260045260246000fd5b7f4552433732313a20696e76616c696420746f6b656e2049440000000000000000600082015250565b6000613732601883612d21565b915061373d826136fc565b602082019050919050565b6000602082019050818103600083015261376181613725565b9050919050565b7f4552433732313a2061646472657373207a65726f206973206e6f74206120766160008201527f6c6964206f776e65720000000000000000000000000000000000000000000000602082015250565b60006137c4602983612d21565b91506137cf82613768565b604082019050919050565b600060208201905081810360008301526137f3816137b7565b9050919050565b7f5265656e7472616e637947756172643a207265656e7472616e742063616c6c00600082015250565b6000613830601f83612d21565b915061383b826137fa565b602082019050919050565b6000602082019050818103600083015261385f81613823565b9050919050565b7f596f7520617265206e6f7420746865206f776e6572206f6620746865204e4654600082015250565b600061389c602083612d21565b91506138a782613866565b602082019050919050565b600060208201905081810360008301526138cb8161388f565b9050919050565b7f53706563696679206120637573746f6d206e616d650000000000000000000000600082015250565b6000613908601583612d21565b9150613913826138d2565b602082019050919050565b60006020820190508181036000830152613937816138fb565b9050919050565b7f496e73756666696369656e742066756e647320746f207075726368617365207460008201527f686520637573746f6d206e616d65000000000000000000000000000000000000602082015250565b600061399a602e83612d21565b91506139a58261393e565b604082019050919050565b600060208201905081810360008301526139c98161398d565b9050919050565b60006040820190506139e56000830185612efc565b81810360208301526139f78184612d76565b90509392505050565b600081519050613a0f81612fa6565b92915050565b600060208284031215613a2b57613a2a612c51565b5b6000613a3984828501613a00565b91505092915050565b7f596f75206d757374206f776e20746865206669727374204e465420746f206d6960008201527f6e7420746865207365636f6e64204e4654000000000000000000000000000000602082015250565b6000613a9e603183612d21565b9150613aa982613a42565b604082019050919050565b60006020820190508181036000830152613acd81613a91565b9050919050565b7f496e73756666696369656e742066756e647320746f206d696e7420746865204e60008201527f4654000000000000000000000000000000000000000000000000000000000000602082015250565b6000613b30602283612d21565b9150613b3b82613ad4565b604082019050919050565b60006020820190508181036000830152613b5f81613b23565b9050919050565b7f4578636565647320746865206d6178696d756d204e465473207065722074726160008201527f6e73616374696f6e206c696d6974206f722074686520746f74616c207375707060208201527f6c79206c696d6974000000000000000000000000000000000000000000000000604082015250565b6000613be8604883612d21565b9150613bf382613b66565b606082019050919050565b60006020820190508181036000830152613c1781613bdb565b9050919050565b7f4f776e61626c653a206e6577206f776e657220697320746865207a65726f206160008201527f6464726573730000000000000000000000000000000000000000000000000000602082015250565b6000613c7a602683612d21565b9150613c8582613c1e565b604082019050919050565b60006020820190508181036000830152613ca981613c6d565b9050919050565b7f4552433732313a207472616e736665722066726f6d20696e636f72726563742060008201527f6f776e6572000000000000000000000000000000000000000000000000000000602082015250565b6000613d0c602583612d21565b9150613d1782613cb0565b604082019050919050565b60006020820190508181036000830152613d3b81613cff565b9050919050565b7f4552433732313a207472616e7366657220746f20746865207a65726f2061646460008201527f7265737300000000000000000000000000000000000000000000000000000000602082015250565b6000613d9e602483612d21565b9150613da982613d42565b604082019050919050565b60006020820190508181036000830152613dcd81613d91565b9050919050565b7f4e487b7100000000000000000000000000000000000000000000000000000000600052601160045260246000fd5b6000613e0e82612dd1565b9150613e1983612dd1565b925082821015613e2c57613e2b613dd4565b5b828203905092915050565b6000613e4282612dd1565b9150613e4d83612dd1565b9250827fffffffffffffffffffffffffffffffffffffffffffffffffffffffffffffffff03821115613e8257613e81613dd4565b5b828201905092915050565b7f4f776e61626c653a2063616c6c6572206973206e6f7420746865206f776e6572600082015250565b6000613ec3602083612d21565b9150613ece82613e8d565b602082019050919050565b60006020820190508181036000830152613ef281613eb6565b9050919050565b7f4552433732313a20617070726f766520746f2063616c6c657200000000000000600082015250565b6000613f2f601983612d21565b9150613f3a82613ef9565b602082019050919050565b60006020820190508181036000830152613f5e81613f22565b9050919050565b7f4552433732313a207472616e7366657220746f206e6f6e20455243373231526560008201527f63656976657220696d706c656d656e7465720000000000000000000000000000602082015250565b6000613fc1603283612d21565b9150613fcc82613f65565b604082019050919050565b60006020820190508181036000830152613ff081613fb4565b9050919050565b600081905092915050565b600061400d82612d16565b6140178185613ff7565b9350614027818560208601612d32565b80840191505092915050565b600061403f8285614002565b915061404b8284614002565b91508190509392505050565b7f45524337323155524953746f726167653a2055524920736574206f66206e6f6e60008201527f6578697374656e7420746f6b656e000000000000000000000000000000000000602082015250565b60006140b3602e83612d21565b91506140be82614057565b604082019050919050565b600060208201905081810360008301526140e2816140a6565b9050919050565b600081519050919050565b600082825260208201905092915050565b6000614110826140e9565b61411a81856140f4565b935061412a818560208601612d32565b61413381612d65565b840191505092915050565b60006080820190506141536000830187612e66565b6141606020830186612e66565b61416d6040830185612efc565b818103606083015261417f8184614105565b905095945050505050565b60008151905061419981612c87565b92915050565b6000602082840312156141b5576141b4612c51565b5b60006141c38482850161418a565b91505092915050565b60006141d782612dd1565b91507fffffffffffffffffffffffffffffffffffffffffffffffffffffffffffffffff82141561420a57614209613dd4565b5b600182019050919050565b7f4e487b7100000000000000000000000000000000000000000000000000000000600052601260045260246000fd5b600061424f82612dd1565b915061425a83612dd1565b92508261426a57614269614215565b5b828204905092915050565b600061428082612dd1565b915061428b83612dd1565b92508261429b5761429a614215565b5b828206905092915050565b7f4552433732313a206d696e7420746f20746865207a65726f2061646472657373600082015250565b60006142dc602083612d21565b91506142e7826142a6565b602082019050919050565b6000602082019050818103600083015261430b816142cf565b9050919050565b7f4552433732313a20746f6b656e20616c7265616479206d696e74656400000000600082015250565b6000614348601c83612d21565b915061435382614312565b602082019050919050565b600060208201905081810360008301526143778161433b565b9050919050565b7f4e487b7100000000000000000000000000000000000000000000000000000000600052603160045260246000fdfea26469706673582212208a0c6b836a4aa7bf672f768f6d162b6a75840e51f8cbf9b1dc1d4db571a4aeb564736f6c63430008090033",
  "linkReferences": {},
  "deployedLinkReferences": {}
}